{
  "_format": "hh-sol-artifact-1",
  "contractName": "MockOracle",
  "sourceName": "contracts/MockOracle.sol",
  "abi": [
    {
      "inputs": [],
      "name": "price",
      "outputs": [
        {
          "internalType": "uint256",
          "name": "",
          "type": "uint256"
        }
      ],
      "stateMutability": "view",
      "type": "function"
    },
    {
      "inputs": [],
      "name": "priceView",
      "outputs": [
        {
          "internalType": "uint256",
          "name": "",
          "type": "uint256"
        }
      ],
      "stateMutability": "view",
      "type": "function"
    },
    {
      "inputs": [
        {
          "internalType": "uint256",
          "name": "p",
          "type": "uint256"
        }
      ],
      "name": "setPrice",
      "outputs": [],
      "stateMutability": "nonpayable",
      "type": "function"
    }
  ],
  "bytecode": "0x60806040526f0d776a23415b32046fc99f380000000060005534801561002457600080fd5b50610182806100346000396000f3fe608060405234801561001057600080fd5b50600436106100415760003560e01c8063172e1e521461004657806391b7f5ed14610064578063a035b1fe14610080575b600080fd5b61004e61009e565b60405161005b91906100d3565b60405180910390f35b61007e6004803603810190610079919061011f565b6100a7565b005b6100886100b1565b60405161009591906100d3565b60405180910390f35b60008054905090565b8060008190555050565b60008054905090565b6000819050919050565b6100cd816100ba565b82525050565b60006020820190506100e860008301846100c4565b92915050565b600080fd5b6100fc816100ba565b811461010757600080fd5b50565b600081359050610119816100f3565b92915050565b600060208284031215610135576101346100ee565b5b60006101438482850161010a565b9150509291505056fea264697066735822122062f02553b60b86719f303cfbaa1a2abdf9f353e9c5bcbd909d55ecbc192ccee464736f6c63430008140033",
  "linkReferences": {},
  "deployedLinkReferences": {}
}