{
  "_format": "hh-sol-artifact-1",
  "contractName": "SimpleVault",
  "sourceName": "contracts/SimpleVault.sol",
  "abi": [
    {
      "inputs": [
        {
          "internalType": "contract IERC20",
          "name": "_asset",
          "type": "address"
        }
      ],
      "stateMutability": "nonpayable",
      "type": "constructor"
    },
    {
      "anonymous": false,
      "inputs": [
        {
          "indexed": true,
          "internalType": "address",
          "name": "owner",
          "type": "address"
        },
        {
          "indexed": true,
          "internalType": "address",
          "name": "spender",
          "type": "address"
        },
        {
          "indexed": false,
          "internalType": "uint256",
          "name": "value",
          "type": "uint256"
        }
      ],
      "name": "Approval",
      "type": "event"
    },
    {
      "anonymous": false,
      "inputs": [
        {
          "indexed": true,
          "internalType": "address",
          "name": "from",
          "type": "address"
        },
        {
          "indexed": true,
          "internalType": "address",
          "name": "to",
          "type": "address"
        },
        {
          "indexed": false,
          "internalType": "uint256",
          "name": "value",
          "type": "uint256"
        }
      ],
      "name": "Transfer",
      "type": "event"
    },
    {
      "inputs": [
        {
          "internalType": "address",
          "name": "owner",
          "type": "address"
        },
        {
          "internalType": "address",
          "name": "spender",
          "type": "address"
        }
      ],
      "name": "allowance",
      "outputs": [
        {
          "internalType": "uint256",
          "name": "",
          "type": "uint256"
        }
      ],
      "stateMutability": "view",
      "type": "function"
    },
    {
      "inputs": [
        {
          "internalType": "address",
          "name": "spender",
          "type": "address"
        },
        {
          "internalType": "uint256",
          "name": "amount",
          "type": "uint256"
        }
      ],
      "name": "approve",
      "outputs": [
        {
          "internalType": "bool",
          "name": "",
          "type": "bool"
        }
      ],
      "stateMutability": "nonpayable",
      "type": "function"
    },
    {
      "inputs": [],
      "name": "asset",
      "outputs": [
        {
          "internalType": "contract IERC20",
          "name": "",
          "type": "address"
        }
      ],
      "stateMutability": "view",
      "type": "function"
    },
    {
      "inputs": [
        {
          "internalType": "address",
          "name": "account",
          "type": "address"
        }
      ],
      "name": "balanceOf",
      "outputs": [
        {
          "internalType": "uint256",
          "name": "",
          "type": "uint256"
        }
      ],
      "stateMutability": "view",
      "type": "function"
    },
    {
      "inputs": [],
      "name": "decimals",
      "outputs": [
        {
          "internalType": "uint8",
          "name": "",
          "type": "uint8"
        }
      ],
      "stateMutability": "view",
      "type": "function"
    },
    {
      "inputs": [
        {
          "internalType": "address",
          "name": "spender",
          "type": "address"
        },
        {
          "internalType": "uint256",
          "name": "subtractedValue",
          "type": "uint256"
        }
      ],
      "name": "decreaseAllowance",
      "outputs": [
        {
          "internalType": "bool",
          "name": "",
          "type": "bool"
        }
      ],
      "stateMutability": "nonpayable",
      "type": "function"
    },
    {
      "inputs": [
        {
          "internalType": "uint256",
          "name": "assets",
          "type": "uint256"
        }
      ],
      "name": "deposit",
      "outputs": [],
      "stateMutability": "nonpayable",
      "type": "function"
    },
    {
      "inputs": [
        {
          "internalType": "address",
          "name": "spender",
          "type": "address"
        },
        {
          "internalType": "uint256",
          "name": "addedValue",
          "type": "uint256"
        }
      ],
      "name": "increaseAllowance",
      "outputs": [
        {
          "internalType": "bool",
          "name": "",
          "type": "bool"
        }
      ],
      "stateMutability": "nonpayable",
      "type": "function"
    },
    {
      "inputs": [],
      "name": "name",
      "outputs": [
        {
          "internalType": "string",
          "name": "",
          "type": "string"
        }
      ],
      "stateMutability": "view",
      "type": "function"
    },
    {
      "inputs": [],
      "name": "symbol",
      "outputs": [
        {
          "internalType": "string",
          "name": "",
          "type": "string"
        }
      ],
      "stateMutability": "view",
      "type": "function"
    },
    {
      "inputs": [],
      "name": "totalAssets",
      "outputs": [
        {
          "internalType": "uint256",
          "name": "",
          "type": "uint256"
        }
      ],
      "stateMutability": "view",
      "type": "function"
    },
    {
      "inputs": [],
      "name": "totalSupply",
      "outputs": [
        {
          "internalType": "uint256",
          "name": "",
          "type": "uint256"
        }
      ],
      "stateMutability": "view",
      "type": "function"
    },
    {
      "inputs": [
        {
          "internalType": "address",
          "name": "to",
          "type": "address"
        },
        {
          "internalType": "uint256",
          "name": "amount",
          "type": "uint256"
        }
      ],
      "name": "transfer",
      "outputs": [
        {
          "internalType": "bool",
          "name": "",
          "type": "bool"
        }
      ],
      "stateMutability": "nonpayable",
      "type": "function"
    },
    {
      "inputs": [
        {
          "internalType": "address",
          "name": "from",
          "type": "address"
        },
        {
          "internalType": "address",
          "name": "to",
          "type": "address"
        },
        {
          "internalType": "uint256",
          "name": "amount",
          "type": "uint256"
        }
      ],
      "name": "transferFrom",
      "outputs": [
        {
          "internalType": "bool",
          "name": "",
          "type": "bool"
        }
      ],
      "stateMutability": "nonpayable",
      "type": "function"
    },
    {
      "inputs": [
        {
          "internalType": "uint256",
          "name": "shares",
          "type": "uint256"
        }
      ],
      "name": "withdraw",
      "outputs": [],
      "stateMutability": "nonpayable",
      "type": "function"
    }
  ],
  "bytecode": "0x60806040523480156200001157600080fd5b50604051620021d9380380620021d983398181016040528101906200003791906200018f565b6040518060400160405280601181526020017f5661756c7420536861726520546f6b656e0000000000000000000000000000008152506040518060400160405280600681526020017f76534841524500000000000000000000000000000000000000000000000000008152508160039081620000b491906200043b565b508060049081620000c691906200043b565b50505080600560006101000a81548173ffffffffffffffffffffffffffffffffffffffff021916908373ffffffffffffffffffffffffffffffffffffffff1602179055505062000522565b600080fd5b600073ffffffffffffffffffffffffffffffffffffffff82169050919050565b6000620001438262000116565b9050919050565b6000620001578262000136565b9050919050565b62000169816200014a565b81146200017557600080fd5b50565b60008151905062000189816200015e565b92915050565b600060208284031215620001a857620001a762000111565b5b6000620001b88482850162000178565b91505092915050565b600081519050919050565b7f4e487b7100000000000000000000000000000000000000000000000000000000600052604160045260246000fd5b7f4e487b7100000000000000000000000000000000000000000000000000000000600052602260045260246000fd5b600060028204905060018216806200024357607f821691505b602082108103620002595762000258620001fb565b5b50919050565b60008190508160005260206000209050919050565b60006020601f8301049050919050565b600082821b905092915050565b600060088302620002c37fffffffffffffffffffffffffffffffffffffffffffffffffffffffffffffffff8262000284565b620002cf868362000284565b95508019841693508086168417925050509392505050565b6000819050919050565b6000819050919050565b60006200031c620003166200031084620002e7565b620002f1565b620002e7565b9050919050565b6000819050919050565b6200033883620002fb565b62000350620003478262000323565b84845462000291565b825550505050565b600090565b6200036762000358565b620003748184846200032d565b505050565b5b818110156200039c57620003906000826200035d565b6001810190506200037a565b5050565b601f821115620003eb57620003b5816200025f565b620003c08462000274565b81016020851015620003d0578190505b620003e8620003df8562000274565b83018262000379565b50505b505050565b600082821c905092915050565b60006200041060001984600802620003f0565b1980831691505092915050565b60006200042b8383620003fd565b9150826002028217905092915050565b6200044682620001c1565b67ffffffffffffffff811115620004625762000461620001cc565b5b6200046e82546200022a565b6200047b828285620003a0565b600060209050601f831160018114620004b357600084156200049e578287015190505b620004aa85826200041d565b8655506200051a565b601f198416620004c3866200025f565b60005b82811015620004ed57848901518255600182019150602085019450602081019050620004c6565b868310156200050d578489015162000509601f891682620003fd565b8355505b6001600288020188555050505b505050505050565b611ca780620005326000396000f3fe608060405234801561001057600080fd5b50600436106100f55760003560e01c806338d52e0f11610097578063a457c2d711610066578063a457c2d71461028a578063a9059cbb146102ba578063b6b55f25146102ea578063dd62ed3e14610306576100f5565b806338d52e0f146101ee578063395093511461020c57806370a082311461023c57806395d89b411461026c576100f5565b806318160ddd116100d357806318160ddd1461016657806323b872dd146101845780632e1a7d4d146101b4578063313ce567146101d0576100f5565b806301e1d114146100fa57806306fdde0314610118578063095ea7b314610136575b600080fd5b610102610336565b60405161010f919061110f565b60405180910390f35b6101206103d9565b60405161012d91906111ba565b60405180910390f35b610150600480360381019061014b919061126b565b61046b565b60405161015d91906112c6565b60405180910390f35b61016e61048e565b60405161017b919061110f565b60405180910390f35b61019e600480360381019061019991906112e1565b610498565b6040516101ab91906112c6565b60405180910390f35b6101ce60048036038101906101c99190611334565b6104c7565b005b6101d86105a5565b6040516101e5919061137d565b60405180910390f35b6101f66105ae565b60405161020391906113f7565b60405180910390f35b6102266004803603810190610221919061126b565b6105d4565b60405161023391906112c6565b60405180910390f35b61025660048036038101906102519190611412565b61060b565b604051610263919061110f565b60405180910390f35b610274610653565b60405161028191906111ba565b60405180910390f35b6102a4600480360381019061029f919061126b565b6106e5565b6040516102b191906112c6565b60405180910390f35b6102d460048036038101906102cf919061126b565b61075c565b6040516102e191906112c6565b60405180910390f35b61030460048036038101906102ff9190611334565b61077f565b005b610320600480360381019061031b919061143f565b61086f565b60405161032d919061110f565b60405180910390f35b6000600560009054906101000a900473ffffffffffffffffffffffffffffffffffffffff1673ffffffffffffffffffffffffffffffffffffffff166370a08231306040518263ffffffff1660e01b8152600401610393919061148e565b602060405180830381865afa1580156103b0573d6000803e3d6000fd5b505050506040513d601f19601f820116820180604052508101906103d491906114be565b905090565b6060600380546103e89061151a565b80601f01602080910402602001604051908101604052809291908181526020018280546104149061151a565b80156104615780601f1061043657610100808354040283529160200191610461565b820191906000526020600020905b81548152906001019060200180831161044457829003601f168201915b5050505050905090565b6000806104766108f6565b90506104838185856108fe565b600191505092915050565b6000600254905090565b6000806104a36108f6565b90506104b0858285610ac7565b6104bb858585610b53565b60019150509392505050565b60006104d161048e565b90506000816104de610336565b846104e9919061157a565b6104f391906115eb565b90506104ff3384610dc9565b600560009054906101000a900473ffffffffffffffffffffffffffffffffffffffff1673ffffffffffffffffffffffffffffffffffffffff1663a9059cbb33836040518363ffffffff1660e01b815260040161055c92919061161c565b6020604051808303816000875af115801561057b573d6000803e3d6000fd5b505050506040513d601f19601f8201168201806040525081019061059f9190611671565b50505050565b60006012905090565b600560009054906101000a900473ffffffffffffffffffffffffffffffffffffffff1681565b6000806105df6108f6565b90506106008185856105f1858961086f565b6105fb919061169e565b6108fe565b600191505092915050565b60008060008373ffffffffffffffffffffffffffffffffffffffff1673ffffffffffffffffffffffffffffffffffffffff168152602001908152602001600020549050919050565b6060600480546106629061151a565b80601f016020809104026020016040519081016040528092919081815260200182805461068e9061151a565b80156106db5780601f106106b0576101008083540402835291602001916106db565b820191906000526020600020905b8154815290600101906020018083116106be57829003601f168201915b5050505050905090565b6000806106f06108f6565b905060006106fe828661086f565b905083811015610743576040517f08c379a000000000000000000000000000000000000000000000000000000000815260040161073a90611744565b60405180910390fd5b61075082868684036108fe565b60019250505092915050565b6000806107676108f6565b9050610774818585610b53565b600191505092915050565b600061078961048e565b9050600560009054906101000a900473ffffffffffffffffffffffffffffffffffffffff1673ffffffffffffffffffffffffffffffffffffffff166323b872dd3330856040518463ffffffff1660e01b81526004016107ea93929190611764565b6020604051808303816000875af1158015610809573d6000803e3d6000fd5b505050506040513d601f19601f8201168201806040525081019061082d9190611671565b50600080820361083f57829050610860565b610847610336565b8284610853919061157a565b61085d91906115eb565b90505b61086a3382610f96565b505050565b6000600160008473ffffffffffffffffffffffffffffffffffffffff1673ffffffffffffffffffffffffffffffffffffffff16815260200190815260200160002060008373ffffffffffffffffffffffffffffffffffffffff1673ffffffffffffffffffffffffffffffffffffffff16815260200190815260200160002054905092915050565b600033905090565b600073ffffffffffffffffffffffffffffffffffffffff168373ffffffffffffffffffffffffffffffffffffffff160361096d576040517f08c379a00000000000000000000000000000000000000000000000000000000081526004016109649061180d565b60405180910390fd5b600073ffffffffffffffffffffffffffffffffffffffff168273ffffffffffffffffffffffffffffffffffffffff16036109dc576040517f08c379a00000000000000000000000000000000000000000000000000000000081526004016109d39061189f565b60405180910390fd5b80600160008573ffffffffffffffffffffffffffffffffffffffff1673ffffffffffffffffffffffffffffffffffffffff16815260200190815260200160002060008473ffffffffffffffffffffffffffffffffffffffff1673ffffffffffffffffffffffffffffffffffffffff168152602001908152602001600020819055508173ffffffffffffffffffffffffffffffffffffffff168373ffffffffffffffffffffffffffffffffffffffff167f8c5be1e5ebec7d5bd14f71427d1e84f3dd0314c0f7b2291e5b200ac8c7c3b92583604051610aba919061110f565b60405180910390a3505050565b6000610ad3848461086f565b90507fffffffffffffffffffffffffffffffffffffffffffffffffffffffffffffffff8114610b4d5781811015610b3f576040517f08c379a0000000000000000000000000000000000000000000000000000000008152600401610b369061190b565b60405180910390fd5b610b4c84848484036108fe565b5b50505050565b600073ffffffffffffffffffffffffffffffffffffffff168373ffffffffffffffffffffffffffffffffffffffff1603610bc2576040517f08c379a0000000000000000000000000000000000000000000000000000000008152600401610bb99061199d565b60405180910390fd5b600073ffffffffffffffffffffffffffffffffffffffff168273ffffffffffffffffffffffffffffffffffffffff1603610c31576040517f08c379a0000000000000000000000000000000000000000000000000000000008152600401610c2890611a2f565b60405180910390fd5b610c3c8383836110ec565b60008060008573ffffffffffffffffffffffffffffffffffffffff1673ffffffffffffffffffffffffffffffffffffffff16815260200190815260200160002054905081811015610cc2576040517f08c379a0000000000000000000000000000000000000000000000000000000008152600401610cb990611ac1565b60405180910390fd5b8181036000808673ffffffffffffffffffffffffffffffffffffffff1673ffffffffffffffffffffffffffffffffffffffff16815260200190815260200160002081905550816000808573ffffffffffffffffffffffffffffffffffffffff1673ffffffffffffffffffffffffffffffffffffffff168152602001908152602001600020600082825401925050819055508273ffffffffffffffffffffffffffffffffffffffff168473ffffffffffffffffffffffffffffffffffffffff167fddf252ad1be2c89b69c2b068fc378daa952ba7f163c4a11628f55a4df523b3ef84604051610db0919061110f565b60405180910390a3610dc38484846110f1565b50505050565b600073ffffffffffffffffffffffffffffffffffffffff168273ffffffffffffffffffffffffffffffffffffffff1603610e38576040517f08c379a0000000000000000000000000000000000000000000000000000000008152600401610e2f90611b53565b60405180910390fd5b610e44826000836110ec565b60008060008473ffffffffffffffffffffffffffffffffffffffff1673ffffffffffffffffffffffffffffffffffffffff16815260200190815260200160002054905081811015610eca576040517f08c379a0000000000000000000000000000000000000000000000000000000008152600401610ec190611be5565b60405180910390fd5b8181036000808573ffffffffffffffffffffffffffffffffffffffff1673ffffffffffffffffffffffffffffffffffffffff1681526020019081526020016000208190555081600260008282540392505081905550600073ffffffffffffffffffffffffffffffffffffffff168373ffffffffffffffffffffffffffffffffffffffff167fddf252ad1be2c89b69c2b068fc378daa952ba7f163c4a11628f55a4df523b3ef84604051610f7d919061110f565b60405180910390a3610f91836000846110f1565b505050565b600073ffffffffffffffffffffffffffffffffffffffff168273ffffffffffffffffffffffffffffffffffffffff1603611005576040517f08c379a0000000000000000000000000000000000000000000000000000000008152600401610ffc90611c51565b60405180910390fd5b611011600083836110ec565b8060026000828254611023919061169e565b92505081905550806000808473ffffffffffffffffffffffffffffffffffffffff1673ffffffffffffffffffffffffffffffffffffffff168152602001908152602001600020600082825401925050819055508173ffffffffffffffffffffffffffffffffffffffff16600073ffffffffffffffffffffffffffffffffffffffff167fddf252ad1be2c89b69c2b068fc378daa952ba7f163c4a11628f55a4df523b3ef836040516110d4919061110f565b60405180910390a36110e8600083836110f1565b5050565b505050565b505050565b6000819050919050565b611109816110f6565b82525050565b60006020820190506111246000830184611100565b92915050565b600081519050919050565b600082825260208201905092915050565b60005b83811015611164578082015181840152602081019050611149565b60008484015250505050565b6000601f19601f8301169050919050565b600061118c8261112a565b6111968185611135565b93506111a6818560208601611146565b6111af81611170565b840191505092915050565b600060208201905081810360008301526111d48184611181565b905092915050565b600080fd5b600073ffffffffffffffffffffffffffffffffffffffff82169050919050565b600061120c826111e1565b9050919050565b61121c81611201565b811461122757600080fd5b50565b60008135905061123981611213565b92915050565b611248816110f6565b811461125357600080fd5b50565b6000813590506112658161123f565b92915050565b60008060408385031215611282576112816111dc565b5b60006112908582860161122a565b92505060206112a185828601611256565b9150509250929050565b60008115159050919050565b6112c0816112ab565b82525050565b60006020820190506112db60008301846112b7565b92915050565b6000806000606084860312156112fa576112f96111dc565b5b60006113088682870161122a565b93505060206113198682870161122a565b925050604061132a86828701611256565b9150509250925092565b60006020828403121561134a576113496111dc565b5b600061135884828501611256565b91505092915050565b600060ff82169050919050565b61137781611361565b82525050565b6000602082019050611392600083018461136e565b92915050565b6000819050919050565b60006113bd6113b86113b3846111e1565b611398565b6111e1565b9050919050565b60006113cf826113a2565b9050919050565b60006113e1826113c4565b9050919050565b6113f1816113d6565b82525050565b600060208201905061140c60008301846113e8565b92915050565b600060208284031215611428576114276111dc565b5b60006114368482850161122a565b91505092915050565b60008060408385031215611456576114556111dc565b5b60006114648582860161122a565b92505060206114758582860161122a565b9150509250929050565b61148881611201565b82525050565b60006020820190506114a3600083018461147f565b92915050565b6000815190506114b88161123f565b92915050565b6000602082840312156114d4576114d36111dc565b5b60006114e2848285016114a9565b91505092915050565b7f4e487b7100000000000000000000000000000000000000000000000000000000600052602260045260246000fd5b6000600282049050600182168061153257607f821691505b602082108103611545576115446114eb565b5b50919050565b7f4e487b7100000000000000000000000000000000000000000000000000000000600052601160045260246000fd5b6000611585826110f6565b9150611590836110f6565b925082820261159e816110f6565b915082820484148315176115b5576115b461154b565b5b5092915050565b7f4e487b7100000000000000000000000000000000000000000000000000000000600052601260045260246000fd5b60006115f6826110f6565b9150611601836110f6565b925082611611576116106115bc565b5b828204905092915050565b6000604082019050611631600083018561147f565b61163e6020830184611100565b9392505050565b61164e816112ab565b811461165957600080fd5b50565b60008151905061166b81611645565b92915050565b600060208284031215611687576116866111dc565b5b60006116958482850161165c565b91505092915050565b60006116a9826110f6565b91506116b4836110f6565b92508282019050808211156116cc576116cb61154b565b5b92915050565b7f45524332303a2064656372656173656420616c6c6f77616e63652062656c6f7760008201527f207a65726f000000000000000000000000000000000000000000000000000000602082015250565b600061172e602583611135565b9150611739826116d2565b604082019050919050565b6000602082019050818103600083015261175d81611721565b9050919050565b6000606082019050611779600083018661147f565b611786602083018561147f565b6117936040830184611100565b949350505050565b7f45524332303a20617070726f76652066726f6d20746865207a65726f2061646460008201527f7265737300000000000000000000000000000000000000000000000000000000602082015250565b60006117f7602483611135565b91506118028261179b565b604082019050919050565b60006020820190508181036000830152611826816117ea565b9050919050565b7f45524332303a20617070726f766520746f20746865207a65726f20616464726560008201527f7373000000000000000000000000000000000000000000000000000000000000602082015250565b6000611889602283611135565b91506118948261182d565b604082019050919050565b600060208201905081810360008301526118b88161187c565b9050919050565b7f45524332303a20696e73756666696369656e7420616c6c6f77616e6365000000600082015250565b60006118f5601d83611135565b9150611900826118bf565b602082019050919050565b60006020820190508181036000830152611924816118e8565b9050919050565b7f45524332303a207472616e736665722066726f6d20746865207a65726f20616460008201527f6472657373000000000000000000000000000000000000000000000000000000602082015250565b6000611987602583611135565b91506119928261192b565b604082019050919050565b600060208201905081810360008301526119b68161197a565b9050919050565b7f45524332303a207472616e7366657220746f20746865207a65726f206164647260008201527f6573730000000000000000000000000000000000000000000000000000000000602082015250565b6000611a19602383611135565b9150611a24826119bd565b604082019050919050565b60006020820190508181036000830152611a4881611a0c565b9050919050565b7f45524332303a207472616e7366657220616d6f756e742065786365656473206260008201527f616c616e63650000000000000000000000000000000000000000000000000000602082015250565b6000611aab602683611135565b9150611ab682611a4f565b604082019050919050565b60006020820190508181036000830152611ada81611a9e565b9050919050565b7f45524332303a206275726e2066726f6d20746865207a65726f2061646472657360008201527f7300000000000000000000000000000000000000000000000000000000000000602082015250565b6000611b3d602183611135565b9150611b4882611ae1565b604082019050919050565b60006020820190508181036000830152611b6c81611b30565b9050919050565b7f45524332303a206275726e20616d6f756e7420657863656564732062616c616e60008201527f6365000000000000000000000000000000000000000000000000000000000000602082015250565b6000611bcf602283611135565b9150611bda82611b73565b604082019050919050565b60006020820190508181036000830152611bfe81611bc2565b9050919050565b7f45524332303a206d696e7420746f20746865207a65726f206164647265737300600082015250565b6000611c3b601f83611135565b9150611c4682611c05565b602082019050919050565b60006020820190508181036000830152611c6a81611c2e565b905091905056fea2646970667358221220947d34ad27ad5802d52b2b09d064491c606d55eda37a1d46a0d3443289832b8464736f6c63430008140033",
  "linkReferences": {},
  "deployedLinkReferences": {}
}